:020000040800F2
:1000000000000120050300080B030008110300088D
:1000100033030008390300085B03000800000000F8
:100020000000000000000000000000007D03000848
:100030008303000800000000890300088F03000804
:10004000AD030008AD030008AD030008AD030008D0
:10005000AD030008AD030008AD030008AD030008C0
:10006000AD030008AD030008AD030008AD030008B0
:10007000AD030008AD030008AD030008AD030008A0
:10008000AD030008AD030008AD0300080000000048
:10009000000000000000000000000000AD030008A8
:1000A000AD030008AD030008AD030008AD03000870
:1000B000AD030008AD030008AD030008AD03000860
:1000C000AD030008AD030008AD030008AD03000850
:1000D000AD030008AD030008AD03000800000000F8
:1000E000AD030008AD030008AD03000800000000E8
:1000F000000000000000000000000000AD03000848
:1001000000000000AD030008AD030008AD030008C7
:1001100000000000000000000000000000000000DF
:10012000AD030008AD030008AD030008AD030008EF
:10013000AD03000800000000000000000000000007
:10014000000000000000000000000000AD030008F7
:10015000AD030008AD030008AD030008AD030008BF
:10016000AD030008AD03000800000000000000001F
:10017000000000000000000000000000000000007F
:1001800000000000AD0300080000000000000000B7
:10019000AD03000880B596B000AF00F037F94F4BC3
:1001A0007B6524E07B6D1A1D7A651B683B647B6D63
:1001B0001A1D7A651B68FB637B6D1A1D7A651B68C7
:1001C000BB633B6C7B63FB6B3B63BB6BFB623B6B5F
:1001D000BB6207E07A6B131D7B63BB6A191DB962B2
:1001E00012681A60FA6ABB6A9A42F3D800BF7B6D44
:1001F0003B4A9342D6D33B4B3B651AE03B6D1A1DFD
:100200003A651B68BB643B6D1A1D3A651B687B64CD
:10021000BB6C7B627B6C3B627B6AFB6104E0FB69CD
:100220001A1DFA6100221A603A6AFB699A42F6D8EE
:1002300000BF3B6D2C4A9342E0D300F0F5F83A1D25
:1002400007F108031146184600F0CEF8274A284B5C
:10025000D31A9B103B610023FB6007E0244AFB6834
:1002600052F823309847FB680133FB603A69FB681A
:100270009A42F3DC1F4A204BD31A9B103B610023A8
:10028000FB6007E01C4AFB6852F823309847FB6884
:100290000133FB603A69FB689A42F3DC00BFBB683C
:1002A0007A681146184600F06BF9F864134A144B4B
:1002B000D31A9B10BB61BB697B6108E07B69013B82
:1002C0000F4A52F8233098477B69013B7B617B6979
:1002D000002BF3DC00BFF86C00F080F8B4030008DA
:1002E000CC030008CC030008DC030008DC03000892
:1002F000DC030008DC030008DC030008DC03000862
:10030000DC0300082548004700BF80B400AFFEE7CB
:100310001EF0040F0CBFEFF30880EFF30980714665
:100320001F4A104700BF80B483B000AF78603960C7
:10033000FEE780B400AFFEE71EF0040F0CBFEFF342
:100340000880EFF309807146164A104700BF80B459
:1003500083B000AF78603960FEE71EF0040F0CBF79
:10036000EFF30880EFF3098071460F4A104700BF92
:1003700080B483B000AF78603960FEE780B400AF2E
:10038000FEE780B400AFFEE780B400AFFEE780B4C4
:1003900000AF00BFBD4680BC70470000950100085B
:1003A000270300084F0300087103000880B400AF62
:0203B000FEE766
:1003B40070100008000000200C00002070100008DD
:1003C40000000010000000100C00002010000020AD
:0803D400000000100000001001
:1003DC0080B582B000AF786000F03CF880B483B098
:1003EC0000AF786039607B6801221A603B68034A71
:1003FC001A6000BF0C37BD4680BC7047000000205F
:10040C0080B500AF00F02AF8024B034A9A6000BF97
:10041C0080BD00BF00ED00E00000000880B500AF1B
:10042C0000F028F800BF80BD80B400AFBFF34F8F41
:10043C0000BF064BDB6803F4E0620449044B134332
:10044C00CB60BFF34F8F00BF00BFFDE700ED00E0B6
:10045C000400FA0580B500AFFFF7E6FF80B400AFEB
:10046C00034B4FF000629A6000BFBD4680BC7047E2
:10047C0000ED00E080B487B000AF00233B610023A7
:10048C007B610223FB600023BB6002237B60344B47
:10049C009B6803F00C033B613B69082B11D03B6953
:1004AC00082B44D83B69002B03D03B69042B04D0A8
:1004BC003DE02C4B2C4A1A603DE02A4B2B4A1A602B
:1004CC0039E0274B5B689B0D03F00103BB60244BA9
:1004DC005B6803F03F037B60BB68002B0CD0234AA6
:1004EC007B68B2FBF3F31E4A52689209C2F308020E
:1004FC0002FB03F37B610BE01B4A7B68B2FBF3F35B
:10050C00174A52689209C2F3080202FB03F37B619B
:10051C00134B5B681B0C03F0030301335B00FB60A4
:10052C007A69FB68B2FBF3F30E4A136003E00D4BE0
:10053C000D4A1A6000BF0A4B9B681B0903F00F039E
:10054C000B4AD35C3B61074B1A683B6922FA03F3F5
:10055C00044A136000BF1C37BD4680BC704700BF07
:10056C0000380240080000200024F40000127A0039
:10057C006010000880B582B000AF00F0DDF90020FB
:10058C0000F0E8F9012000F0E5F900F037FA00235B
:10059C007B6000237B6009E07B68D9B200230122D9
:1005AC00412000F0C3FA7B6801337B607B68062B2B
:1005BC00F2D900F05BFA00237B6002E07B68013328
:1005CC007B607B68014A9342F8D9F2E79F86010071
:1005DC0080B582B000AF00F09FFA03460133FB7187
:1005EC00FB79092B00F2808101A252F823F000BFA5
:1005FC00250600086D060008B5060008FD06000873
:10060C00450700088D070008D50700081D080008DD
:10061C0065080008AD08000801220021412000F007
:10062C00EDFB01220121412000F0E8FB0122022117
:10063C00412000F0E3FB01220321412000F0DEFB0E
:10064C0001220421412000F0D9FB01220521412087
:10065C0000F0D4FB00220621412000F0CFFB67E123
:10066C0000220021412000F0C9FB01220121412080
:10067C0000F0C4FB01220221412000F0BFFB00224C
:10068C000321412000F0BAFB00220421412000F09C
:10069C00B5FB00220521412000F0B0FB0022062111
:1006AC00412000F0ABFB43E101220021412000F08E
:1006BC00A5FB01220121412000F0A0FB0022022118
:1006CC00412000F09BFB01220321412000F096FB0E
:1006DC0001220421412000F091FB00220521412040
:1006EC0000F08CFB01220621412000F087FB1FE16A
:1006FC0001220021412000F081FB01220121412037
:10070C0000F07CFB01220221412000F077FB01224A
:10071C000321412000F072FB00220421412000F053
:10072C006DFB00220521412000F068FB012206210F
:10073C00412000F063FBFBE000220021412000F08F
:10074C005DFB01220121412000F058FB0122022116
:10075C00412000F053FB00220321412000F04EFB0E
:10076C0000220421412000F049FB012205214120F7
:10077C0000F044FB01220621412000F03FFBD7E0B2
:10078C0001220021412000F039FB002201214120EF
:10079C0000F034FB01220221412000F02FFB01224A
:1007AC000321412000F02AFB00220421412000F00B
:1007BC0025FB01220521412000F020FB012206210E
:1007CC00412000F01BFBB3E001220021412000F08E
:1007DC0015FB00220121412000F010FB0122022117
:1007EC00412000F00BFB01220321412000F006FB0D
:1007FC0001220421412000F001FB012205214120AE
:10080C0000F0FCFA01220621412000F0F7FA8FE0FB
:10081C0001220021412000F0F1FA012201214120A6
:10082C0000F0ECFA01220221412000F0E7FA00224C
:10083C000321412000F0E2FA00220421412000F0C3
:10084C00DDFA00220521412000F0D8FA0022062111
:10085C00412000F0D3FA6BE001220021412000F08E
:10086C00CDFA01220121412000F0C8FA0122022117
:10087C00412000F0C3FA01220321412000F0BEFA0E
:10088C0001220421412000F0B9FA01220521412066
:10089C0000F0B4FA01220621412000F0AFFA47E043
:1008AC0001220021412000F0A9FA0122012141205E
:1008BC0000F0A4FA01220221412000F09FFA01224B
:1008CC000321412000F09AFA00220421412000F07B
:1008DC0095FA01220521412000F090FA012206210F
:1008EC00412000F08BFA23E001220021412000F08E
:1008FC0085FA01220121412000F080FA0122022117
:10090C00412000F07BFA01220321412000F076FA0D
:10091C0001220421412000F071FA0122052141201D
:10092C0000F06CFA00220621412000F067FA00BFAB
:10093C0000BF0837BD4680BD80B400AF044B1B68B8
:10094C00034A43F00103136000BFBD4680BC7047EF
:10095C000038024080B485B000AF0346FB71FB79D0
:10096C005B09FB73FB7903F01F03BB73FB7B032B4E
:10097C0036D801A252F823F095090008AB090008FB
:10098C00C1090008D7090008184B1B68BA7B012164
:10099C0001FA02F21146154A0B43136021E0144B85
:1009AC001B68BA7B012101FA02F21146104A0B4373
:1009BC00136016E00F4B1B68BA7B012101FA02F29F
:1009CC0011460C4A0B4313600BE00B4B1B68BA7BB4
:1009DC00012101FA02F21146074A0B43136000E0B1
:1009EC0000BF00BF1437BD4680BC70473038024092
:1009FC0034380240403802404438024080B582B05E
:100A0C0000AF0023FB710023FB7108E0F97901238F
:100A1C000022422000F08AF8FB790133FB71FB794C
:100A2C00022BF3D90523FB7108E0F979002301228D
:100A3C00422000F07BF8FB790133FB71FB79082B2A
:100A4C00F3D90523FB7108E0FB79012219464220FA
:100A5C0000F0D4F9FB790133FB71FB79082BF3D946
:100A6C0000BF00BF0837BD4680BD000080B584B014
:100A7C0000AF0523FB7344E0FB7B002219464220A8
:100A8C0000F0BCF90023BB732FE0BB7B194642205E
:100A9C0000F07CFA0346FB71FB79002B22D100237A
:100AAC00BB6002E0BB680133BB60BB6840F6B73289
:100ABC009342F7D9BB7B1946422000F067FA0346F4
:100ACC00BB71BB79002B0DD1FB7B1A465200134432
:100ADC00DAB2BB7B1344DBB20F3BDAB20D4B1A70AC
:100AEC00FFF776FDBB7B0133BB73BB7B022BCCD9F1
:100AFC00FB7B01221946422000F080F9FB7B01337D
:100B0C00FB73FB7B082BB7D900BF00BF1037BD466A
:100B1C0080BD00BF0D00002080B400AF024B1B78DD
:100B2C001846BD4680BC70470D00002090B482B0C2
:100B3C0000AF0446084611461A462346FB7103468D
:100B4C00BB710B467B7113463B71FB79413B032B0D
:100B5C0000F23C8101A252F823F000BF790B00088F
:100B6C00110C0008A90C0008410D00089A4B1B68D9
:100B7C00BA795200032101FA02F2D2431146964A85
:100B8C000B401360944B1B687979BA79520001FAC7
:100B9C0002F21146904A0B4313607B79002B17D05D
:100BAC00012B2DD18D4B1B68BA79012101FA02F270
:100BBC00D2431146894A0B401360884B1B68397924
:100BCC00BA7901FA02F21146844A0B43136018E019
:100BDC00834B1B68BA795200032101FA02F2D2430B
:100BEC0011467F4A0B4013607D4B1B683979BA79EB
:100BFC00520001FA02F21146794A0B43136000E0ED
:100C0C0000BFE4E0774B1B68BA795200032101FA6C
:100C1C0002F2D2431146734A0B401360714B1B68AE
:100C2C007979BA79520001FA02F211466D4A0B43F6
:100C3C0013607B79002B17D0012B2DD16A4B1B68CD
:100C4C00BA79012101FA02F2D2431146664A0B40ED
:100C5C001360654B1B683979BA7901FA02F21146B7
:100C6C00614A0B43136018E0604B1B68BA79520061
:100C7C00032101FA02F2D24311465C4A0B40136085
:100C8C005A4B1B683979BA79520001FA02F21146B3
:100C9C00564A0B43136000E000BF98E0544B1B68AE
:100CAC00BA795200032101FA02F2D2431146504A9A
:100CBC000B4013604E4B1B687979BA79520001FADC
:100CCC0002F211464A4A0B4313607B79002B17D072
:100CDC00012B2DD1474B1B68BA79012101FA02F285
:100CEC00D2431146434A0B401360424B1B6839797F
:100CFC00BA7901FA02F211463E4A0B43136018E02E
:100D0C003D4B1B68BA795200032101FA02F2D2431F
:100D1C001146394A0B401360374B1B683979BA7945
:100D2C00520001FA02F21146334A0B43136000E001
:100D3C0000BF4CE02E4B1B68BA795200032101FA1C
:100D4C0002F2D24311462A4A0B401360284B1B680F
:100D5C007979BA79520001FA02F21146244A0B430E
:100D6C0013607B79002B17D0012B2DD1214B1B68E5
:100D7C00BA79012101FA02F2D24311461D4A0B4005
:100D8C0013601C4B1B683979BA7901FA02F21146CF
:100D9C00184A0B43136018E0174B1B68BA795200C2
:100DAC00032101FA02F2D2431146134A0B4013609D
:100DBC00114B1B683979BA79520001FA02F21146CB
:100DCC000D4A0B43136000E000BF00E000BF00BF02
:100DDC000837BD4690BC704700000240040002403A
:100DEC000C00024000040240040402400C040240C7
:100DFC0000080240040802400C08024080B483B092
:100E0C0000AF0346FB710B46BB7113467B71FB793C
:100E1C00413B032B00F2A88001A252F823F000BF43
:100E2C003D0E00088B0E0008D90E0008270F000895
:100E3C00504B1B68BA795200032101FA02F21A4096
:100E4C00BB795B0022FA03F3012B16D14A4B1B68CA
:100E5C00BA79012101FA02F2D2431146464A0B40FB
:100E6C001360454B1B687979BA7901FA02F2114685
:100E7C00414A0B431360002377E0012375E03F4B9D
:100E8C001B68BA795200032101FA02F21A40BB79AD
:100E9C005B0022FA03F3012B16D1394B1B68BA798C
:100EAC00012101FA02F2D2431146354A0B4013607C
:100EBC00334B1B687979BA7901FA02F21146304A40
:100ECC000B431360002350E001234EE02D4B1B68B5
:100EDC00BA795200032101FA02F21A40BB795B0085
:100EEC0022FA03F3012B16D1274B1B68BA79012187
:100EFC0001FA02F2D2431146234A0B401360224BF3
:100F0C001B687979BA7901FA02F211461E4A0B4331
:100F1C001360002329E0012327E01A4B1B68BA79E0
:100F2C005200032101FA02F21A40BB795B0022FA4B
:100F3C0003F3012B16D1144B1B68BA79012101FA6A
:100F4C0002F2D2431146104A0B4013600E4B1B6841
:100F5C007979BA7901FA02F211460B4A0B43136004
:100F6C00002302E0012300E0012318460C37BD46A4
:100F7C0080BC704700000240140002400004024094
:100F8C0014040240000802401408024080B483B0EC
:100F9C0000AF03460A46FB711346BB71FB79413B1C
:100FAC00032B4BD801A252F823F000BFC90F000845
:100FBC00E90F00080910000829100008224B1B68D3
:100FCC00BA79012101FA02F21A40BB7922FA03F331
:100FDC00012B01D1012332E0002330E01B4B1B68B5
:100FEC00BA79012101FA02F21A40BB7922FA03F311
:100FFC00012B01D1012322E0002320E0144B1B68BC
:10100C00BA79012101FA02F21A40BB7922FA03F3F0
:10101C00012B01D1012312E0002310E00C4B1B68C3
:10102C00BA79012101FA02F21A40BB7922FA03F3D0
:10103C00012B01D1012302E0002300E0002318461C
:10104C000C37BD4680BC70471000024010040240B3
:10105C001008024000000000000000000102030420
:04106C000607080962
:0C1070000C000020000000000024F40030
:040000050800019559
:00000001FF
